{
  "contractName": "CoinvestToken",
  "abi": [
    {
      "constant": true,
      "inputs": [],
      "name": "name",
      "outputs": [
        {
          "name": "",
          "type": "string"
        }
      ],
      "payable": false,
      "stateMutability": "view",
      "type": "function"
    },
    {
      "constant": false,
      "inputs": [
        {
          "name": "_spender",
          "type": "address"
        },
        {
          "name": "_amount",
          "type": "uint256"
        }
      ],
      "name": "approve",
      "outputs": [],
      "payable": false,
      "stateMutability": "nonpayable",
      "type": "function"
    },
    {
      "constant": false,
      "inputs": [
        {
          "name": "_addr",
          "type": "address"
        }
      ],
      "name": "isContract",
      "outputs": [
        {
          "name": "is_contract",
          "type": "bool"
        }
      ],
      "payable": false,
      "stateMutability": "nonpayable",
      "type": "function"
    },
    {
      "constant": false,
      "inputs": [
        {
          "name": "_value",
          "type": "bool"
        }
      ],
      "name": "adjust_Transfer_data",
      "outputs": [],
      "payable": false,
      "stateMutability": "nonpayable",
      "type": "function"
    },
    {
      "constant": false,
      "inputs": [
        {
          "name": "_from",
          "type": "address"
        },
        {
          "name": "_to",
          "type": "address"
        },
        {
          "name": "_amount",
          "type": "uint256"
        }
      ],
      "name": "transferFrom",
      "outputs": [
        {
          "name": "success",
          "type": "bool"
        }
      ],
      "payable": false,
      "stateMutability": "nonpayable",
      "type": "function"
    },
    {
      "constant": true,
      "inputs": [],
      "name": "decimals",
      "outputs": [
        {
          "name": "",
          "type": "uint256"
        }
      ],
      "payable": false,
      "stateMutability": "view",
      "type": "function"
    },
    {
      "constant": true,
      "inputs": [],
      "name": "MAX_UINT256",
      "outputs": [
        {
          "name": "",
          "type": "uint256"
        }
      ],
      "payable": false,
      "stateMutability": "view",
      "type": "function"
    },
    {
      "constant": true,
      "inputs": [],
      "name": "Transfer_nodata_enabled",
      "outputs": [
        {
          "name": "",
          "type": "bool"
        }
      ],
      "payable": false,
      "stateMutability": "view",
      "type": "function"
    },
    {
      "constant": false,
      "inputs": [
        {
          "name": "_value",
          "type": "bool"
        }
      ],
      "name": "adjust_Transfer_nodata",
      "outputs": [],
      "payable": false,
      "stateMutability": "nonpayable",
      "type": "function"
    },
    {
      "constant": true,
      "inputs": [
        {
          "name": "_owner",
          "type": "address"
        }
      ],
      "name": "balanceOf",
      "outputs": [
        {
          "name": "balance",
          "type": "uint256"
        }
      ],
      "payable": false,
      "stateMutability": "view",
      "type": "function"
    },
    {
      "constant": false,
      "inputs": [
        {
          "name": "_to",
          "type": "address"
        },
        {
          "name": "_value",
          "type": "uint256"
        },
        {
          "name": "_data",
          "type": "bytes"
        }
      ],
      "name": "ERC20transfer",
      "outputs": [
        {
          "name": "success",
          "type": "bool"
        }
      ],
      "payable": false,
      "stateMutability": "nonpayable",
      "type": "function"
    },
    {
      "constant": true,
      "inputs": [],
      "name": "symbol",
      "outputs": [
        {
          "name": "",
          "type": "string"
        }
      ],
      "payable": false,
      "stateMutability": "view",
      "type": "function"
    },
    {
      "constant": true,
      "inputs": [],
      "name": "maintainer",
      "outputs": [
        {
          "name": "",
          "type": "address"
        }
      ],
      "payable": false,
      "stateMutability": "view",
      "type": "function"
    },
    {
      "constant": false,
      "inputs": [
        {
          "name": "_to",
          "type": "address"
        },
        {
          "name": "_value",
          "type": "uint256"
        }
      ],
      "name": "transfer",
      "outputs": [
        {
          "name": "success",
          "type": "bool"
        }
      ],
      "payable": false,
      "stateMutability": "nonpayable",
      "type": "function"
    },
    {
      "constant": false,
      "inputs": [
        {
          "name": "_to",
          "type": "address"
        },
        {
          "name": "_value",
          "type": "uint256"
        },
        {
          "name": "_data",
          "type": "bytes"
        }
      ],
      "name": "transfer",
      "outputs": [
        {
          "name": "success",
          "type": "bool"
        }
      ],
      "payable": false,
      "stateMutability": "nonpayable",
      "type": "function"
    },
    {
      "constant": true,
      "inputs": [],
      "name": "Transfer_data_enabled",
      "outputs": [
        {
          "name": "",
          "type": "bool"
        }
      ],
      "payable": false,
      "stateMutability": "view",
      "type": "function"
    },
    {
      "constant": true,
      "inputs": [
        {
          "name": "_owner",
          "type": "address"
        },
        {
          "name": "_spender",
          "type": "address"
        }
      ],
      "name": "allowance",
      "outputs": [
        {
          "name": "",
          "type": "uint256"
        }
      ],
      "payable": false,
      "stateMutability": "view",
      "type": "function"
    },
    {
      "constant": false,
      "inputs": [
        {
          "name": "_value",
          "type": "bool"
        }
      ],
      "name": "adjust_ERC223Transfer",
      "outputs": [],
      "payable": false,
      "stateMutability": "nonpayable",
      "type": "function"
    },
    {
      "constant": false,
      "inputs": [
        {
          "name": "_to",
          "type": "address"
        },
        {
          "name": "_value",
          "type": "uint256"
        },
        {
          "name": "_data",
          "type": "bytes"
        },
        {
          "name": "_custom_fallback",
          "type": "string"
        }
      ],
      "name": "transfer",
      "outputs": [
        {
          "name": "success",
          "type": "bool"
        }
      ],
      "payable": false,
      "stateMutability": "nonpayable",
      "type": "function"
    },
    {
      "constant": true,
      "inputs": [],
      "name": "ERC223Transfer_enabled",
      "outputs": [
        {
          "name": "",
          "type": "bool"
        }
      ],
      "payable": false,
      "stateMutability": "view",
      "type": "function"
    },
    {
      "inputs": [],
      "payable": false,
      "stateMutability": "nonpayable",
      "type": "constructor"
    },
    {
      "anonymous": false,
      "inputs": [
        {
          "indexed": true,
          "name": "from",
          "type": "address"
        },
        {
          "indexed": true,
          "name": "to",
          "type": "address"
        },
        {
          "indexed": false,
          "name": "value",
          "type": "uint256"
        },
        {
          "indexed": false,
          "name": "data",
          "type": "bytes"
        }
      ],
      "name": "Transfer",
      "type": "event"
    },
    {
      "anonymous": false,
      "inputs": [
        {
          "indexed": true,
          "name": "from",
          "type": "address"
        },
        {
          "indexed": true,
          "name": "to",
          "type": "address"
        },
        {
          "indexed": false,
          "name": "value",
          "type": "uint256"
        },
        {
          "indexed": false,
          "name": "data",
          "type": "bytes"
        }
      ],
      "name": "ERC223Transfer",
      "type": "event"
    },
    {
      "anonymous": false,
      "inputs": [
        {
          "indexed": true,
          "name": "from",
          "type": "address"
        },
        {
          "indexed": true,
          "name": "to",
          "type": "address"
        },
        {
          "indexed": false,
          "name": "value",
          "type": "uint256"
        }
      ],
      "name": "Transfer",
      "type": "event"
    },
    {
      "anonymous": false,
      "inputs": [
        {
          "indexed": true,
          "name": "_from",
          "type": "address"
        },
        {
          "indexed": true,
          "name": "_spender",
          "type": "address"
        },
        {
          "indexed": true,
          "name": "_amount",
          "type": "uint256"
        }
      ],
      "name": "Approval",
      "type": "event"
    }
  ],
  "bytecode": "0x6060604052336000806101000a81548173ffffffffffffffffffffffffffffffffffffffff021916908373ffffffffffffffffffffffffffffffffffffffff16021790555060008060146101000a81548160ff02191690831515021790555060008060156101000a81548160ff0219169083151502179055506001600060166101000a81548160ff0219169083151502179055506a6ec87a61bde772050c000060035534156100ad57600080fd5b600354600160003373ffffffffffffffffffffffffffffffffffffffff1673ffffffffffffffffffffffffffffffffffffffff16815260200190815260200160002081905550611d25806101026000396000f300606060405260043610610112576000357c0100000000000000000000000000000000000000000000000000000000900463ffffffff16806306fdde0314610117578063095ea7b3146101a557806316279055146101e75780631e6f9c1e1461023857806323b872dd1461025d578063313ce567146102d657806333a581d2146102ff5780634511cc7d1461032857806349beee4f1461035557806370a082311461037a57806374de8caf146103c757806395d89b41146104645780639850d32b146104f2578063a9059cbb14610547578063be45fd62146105a1578063cda8300e1461063e578063dd62ed3e1461066b578063de1f892a146106d7578063f6368f8a146106fc578063fb471ce5146107dc575b600080fd5b341561012257600080fd5b61012a610809565b6040518080602001828103825283818151815260200191508051906020019080838360005b8381101561016a57808201518184015260208101905061014f565b50505050905090810190601f1680156101975780820380516001836020036101000a031916815260200191505b509250505060405180910390f35b34156101b057600080fd5b6101e5600480803573ffffffffffffffffffffffffffffffffffffffff16906020019091908035906020019091905050610842565b005b34156101f257600080fd5b61021e600480803573ffffffffffffffffffffffffffffffffffffffff16906020019091905050610a06565b604051808215151515815260200191505060405180910390f35b341561024357600080fd5b61025b60048080351515906020019091905050610a19565b005b341561026857600080fd5b6102bc600480803573ffffffffffffffffffffffffffffffffffffffff1690602001909190803573ffffffffffffffffffffffffffffffffffffffff16906020019091908035906020019091905050610a8e565b604051808215151515815260200191505060405180910390f35b34156102e157600080fd5b6102e9610d70565b6040518082815260200191505060405180910390f35b341561030a57600080fd5b610312610d75565b6040518082815260200191505060405180910390f35b341561033357600080fd5b61033b610d99565b604051808215151515815260200191505060405180910390f35b341561036057600080fd5b61037860048080351515906020019091905050610dac565b005b341561038557600080fd5b6103b1600480803573ffffffffffffffffffffffffffffffffffffffff16906020019091905050610e21565b6040518082815260200191505060405180910390f35b34156103d257600080fd5b61044a600480803573ffffffffffffffffffffffffffffffffffffffff1690602001909190803590602001909190803590602001908201803590602001908080601f01602080910402602001604051908101604052809392919081815260200183838082843782019150505050505091905050610e6a565b604051808215151515815260200191505060405180910390f35b341561046f57600080fd5b610477610e89565b6040518080602001828103825283818151815260200191508051906020019080838360005b838110156104b757808201518184015260208101905061049c565b50505050905090810190601f1680156104e45780820380516001836020036101000a031916815260200191505b509250505060405180910390f35b34156104fd57600080fd5b610505610ec2565b604051808273ffffffffffffffffffffffffffffffffffffffff1673ffffffffffffffffffffffffffffffffffffffff16815260200191505060405180910390f35b341561055257600080fd5b610587600480803573ffffffffffffffffffffffffffffffffffffffff16906020019091908035906020019091905050610ee7565b604051808215151515815260200191505060405180910390f35b34156105ac57600080fd5b610624600480803573ffffffffffffffffffffffffffffffffffffffff1690602001909190803590602001909190803590602001908201803590602001908080601f01602080910402602001604051908101604052809392919081815260200183838082843782019150505050505091905050610f26565b604051808215151515815260200191505060405180910390f35b341561064957600080fd5b610651610f5d565b604051808215151515815260200191505060405180910390f35b341561067657600080fd5b6106c1600480803573ffffffffffffffffffffffffffffffffffffffff1690602001909190803573ffffffffffffffffffffffffffffffffffffffff16906020019091905050610f70565b6040518082815260200191505060405180910390f35b34156106e257600080fd5b6106fa60048080351515906020019091905050610ff7565b005b341561070757600080fd5b6107c2600480803573ffffffffffffffffffffffffffffffffffffffff1690602001909190803590602001909190803590602001908201803590602001908080601f0160208091040260200160405190810160405280939291908181526020018383808284378201915050505050509190803590602001908201803590602001908080601f0160208091040260200160405190810160405280939291908181526020018383808284378201915050505050509190505061106c565b604051808215151515815260200191505060405180910390f35b34156107e757600080fd5b6107ef611526565b604051808215151515815260200191505060405180910390f35b6040805190810160405280600881526020017f436f696e7665737400000000000000000000000000000000000000000000000081525081565b60008114806108cd57506000600260003373ffffffffffffffffffffffffffffffffffffffff1673ffffffffffffffffffffffffffffffffffffffff16815260200190815260200160002060008473ffffffffffffffffffffffffffffffffffffffff1673ffffffffffffffffffffffffffffffffffffffff16815260200190815260200160002054145b15156108d857600080fd5b80600160003373ffffffffffffffffffffffffffffffffffffffff1673ffffffffffffffffffffffffffffffffffffffff168152602001908152602001600020541015151561092657600080fd5b80600260003373ffffffffffffffffffffffffffffffffffffffff1673ffffffffffffffffffffffffffffffffffffffff16815260200190815260200160002060008473ffffffffffffffffffffffffffffffffffffffff1673ffffffffffffffffffffffffffffffffffffffff16815260200190815260200160002081905550808273ffffffffffffffffffffffffffffffffffffffff163373ffffffffffffffffffffffffffffffffffffffff167f8c5be1e5ebec7d5bd14f71427d1e84f3dd0314c0f7b2291e5b200ac8c7c3b92560405160405180910390a45050565b600080823b905060008111915050919050565b6000809054906101000a900473ffffffffffffffffffffffffffffffffffffffff1673ffffffffffffffffffffffffffffffffffffffff163373ffffffffffffffffffffffffffffffffffffffff16141515610a7157fe5b80600060156101000a81548160ff02191690831515021790555050565b6000610a98611ce5565b82600160008773ffffffffffffffffffffffffffffffffffffffff1673ffffffffffffffffffffffffffffffffffffffff1681526020019081526020016000205410158015610b63575082600260008773ffffffffffffffffffffffffffffffffffffffff1673ffffffffffffffffffffffffffffffffffffffff16815260200190815260200160002060003373ffffffffffffffffffffffffffffffffffffffff1673ffffffffffffffffffffffffffffffffffffffff1681526020019081526020016000205410155b1515610b6e57600080fd5b82600260008773ffffffffffffffffffffffffffffffffffffffff1673ffffffffffffffffffffffffffffffffffffffff16815260200190815260200160002060003373ffffffffffffffffffffffffffffffffffffffff1673ffffffffffffffffffffffffffffffffffffffff1681526020019081526020016000206000828254039250508190555082600160008773ffffffffffffffffffffffffffffffffffffffff1673ffffffffffffffffffffffffffffffffffffffff1681526020019081526020016000206000828254039250508190555082600160008673ffffffffffffffffffffffffffffffffffffffff1673ffffffffffffffffffffffffffffffffffffffff168152602001908152602001600020600082825401925050819055508373ffffffffffffffffffffffffffffffffffffffff168573ffffffffffffffffffffffffffffffffffffffff167fe19260aff97b920c7df27010903aeb9c8d2be5d310a2c67824cf3f15396e4c1685846040518083815260200180602001828103825283818151815260200191508051906020019080838360005b83811015610d29578082015181840152602081019050610d0e565b50505050905090810190601f168015610d565780820380516001836020036101000a031916815260200191505b50935050505060405180910390a360019150509392505050565b601281565b7fffffffffffffffffffffffffffffffffffffffffffffffffffffffffffffffff81565b600060169054906101000a900460ff1681565b6000809054906101000a900473ffffffffffffffffffffffffffffffffffffffff1673ffffffffffffffffffffffffffffffffffffffff163373ffffffffffffffffffffffffffffffffffffffff16141515610e0457fe5b80600060166101000a81548160ff02191690831515021790555050565b6000600160008373ffffffffffffffffffffffffffffffffffffffff1673ffffffffffffffffffffffffffffffffffffffff168152602001908152602001600020549050919050565b6000610e74611ce5565b610e7f858583611539565b9150509392505050565b6040805190810160405280600481526020017f434f494e0000000000000000000000000000000000000000000000000000000081525081565b6000809054906101000a900473ffffffffffffffffffffffffffffffffffffffff1681565b6000610ef1611ce5565b610efa84610a06565b15610f1157610f0a848483611850565b9150610f1f565b610f1c848483611539565b91505b5092915050565b6000610f3184610a06565b15610f4857610f41848484611850565b9050610f56565b610f53848484611539565b90505b9392505050565b600060159054906101000a900460ff1681565b6000600260008473ffffffffffffffffffffffffffffffffffffffff1673ffffffffffffffffffffffffffffffffffffffff16815260200190815260200160002060008373ffffffffffffffffffffffffffffffffffffffff1673ffffffffffffffffffffffffffffffffffffffff16815260200190815260200160002054905092915050565b6000809054906101000a900473ffffffffffffffffffffffffffffffffffffffff1673ffffffffffffffffffffffffffffffffffffffff163373ffffffffffffffffffffffffffffffffffffffff1614151561104f57fe5b80600060146101000a81548160ff02191690831515021790555050565b600061107785610a06565b15611510578361108633610e21565b101561109157600080fd5b6110a361109d33610e21565b85611c8f565b600160003373ffffffffffffffffffffffffffffffffffffffff1673ffffffffffffffffffffffffffffffffffffffff168152602001908152602001600020819055506110f86110f286610e21565b85611ca9565b600160008773ffffffffffffffffffffffffffffffffffffffff1673ffffffffffffffffffffffffffffffffffffffff168152602001908152602001600020819055508473ffffffffffffffffffffffffffffffffffffffff166000836040518082805190602001908083835b60208310151561118a5780518252602082019150602081019050602083039250611165565b6001836020036101000a03801982511681845116808217855250505050505090500191505060405180910390207c01000000000000000000000000000000000000000000000000000000009004903387876040518563ffffffff167c0100000000000000000000000000000000000000000000000000000000028152600401808473ffffffffffffffffffffffffffffffffffffffff1673ffffffffffffffffffffffffffffffffffffffff168152602001838152602001828051906020019080838360005b8381101561126b578082015181840152602081019050611250565b50505050905090810190601f1680156112985780820380516001836020036101000a031916815260200191505b50935050505060006040518083038185886187965a03f1935050505015156112bc57fe5b600060159054906101000a900460ff16156113a4578473ffffffffffffffffffffffffffffffffffffffff163373ffffffffffffffffffffffffffffffffffffffff167fe19260aff97b920c7df27010903aeb9c8d2be5d310a2c67824cf3f15396e4c1686866040518083815260200180602001828103825283818151815260200191508051906020019080838360005b8381101561136857808201518184015260208101905061134d565b50505050905090810190601f1680156113955780820380516001836020036101000a031916815260200191505b50935050505060405180910390a35b600060169054906101000a900460ff161561141f578473ffffffffffffffffffffffffffffffffffffffff163373ffffffffffffffffffffffffffffffffffffffff167fddf252ad1be2c89b69c2b068fc378daa952ba7f163c4a11628f55a4df523b3ef866040518082815260200191505060405180910390a35b600060149054906101000a900460ff1615611507578473ffffffffffffffffffffffffffffffffffffffff163373ffffffffffffffffffffffffffffffffffffffff167f9bfafdc2ae8835972d7b64ef3f8f307165ac22ceffde4a742c52da5487f45fd186866040518083815260200180602001828103825283818151815260200191508051906020019080838360005b838110156114cb5780820151818401526020810190506114b0565b50505050905090810190601f1680156114f85780820380516001836020036101000a031916815260200191505b50935050505060405180910390a35b6001905061151e565b61151b858585611539565b90505b949350505050565b600060149054906101000a900460ff1681565b60008261154533610e21565b101561155057600080fd5b61156261155c33610e21565b84611c8f565b600160003373ffffffffffffffffffffffffffffffffffffffff1673ffffffffffffffffffffffffffffffffffffffff168152602001908152602001600020819055506115b76115b185610e21565b84611ca9565b600160008673ffffffffffffffffffffffffffffffffffffffff1673ffffffffffffffffffffffffffffffffffffffff16815260200190815260200160002081905550600060159054906101000a900460ff16156116e2578373ffffffffffffffffffffffffffffffffffffffff163373ffffffffffffffffffffffffffffffffffffffff167fe19260aff97b920c7df27010903aeb9c8d2be5d310a2c67824cf3f15396e4c1685856040518083815260200180602001828103825283818151815260200191508051906020019080838360005b838110156116a657808201518184015260208101905061168b565b50505050905090810190601f1680156116d35780820380516001836020036101000a031916815260200191505b50935050505060405180910390a35b600060169054906101000a900460ff161561175d578373ffffffffffffffffffffffffffffffffffffffff163373ffffffffffffffffffffffffffffffffffffffff167fddf252ad1be2c89b69c2b068fc378daa952ba7f163c4a11628f55a4df523b3ef856040518082815260200191505060405180910390a35b600060149054906101000a900460ff1615611845578373ffffffffffffffffffffffffffffffffffffffff163373ffffffffffffffffffffffffffffffffffffffff167f9bfafdc2ae8835972d7b64ef3f8f307165ac22ceffde4a742c52da5487f45fd185856040518083815260200180602001828103825283818151815260200191508051906020019080838360005b838110156118095780820151818401526020810190506117ee565b50505050905090810190601f1680156118365780820380516001836020036101000a031916815260200191505b50935050505060405180910390a35b600190509392505050565b6000808361185d33610e21565b101561186857600080fd5b61187a61187433610e21565b85611c8f565b600160003373ffffffffffffffffffffffffffffffffffffffff1673ffffffffffffffffffffffffffffffffffffffff168152602001908152602001600020819055506118cf6118c986610e21565b85611ca9565b600160008773ffffffffffffffffffffffffffffffffffffffff1673ffffffffffffffffffffffffffffffffffffffff168152602001908152602001600020819055508490508073ffffffffffffffffffffffffffffffffffffffff1663c0ee0b8a3386866040518463ffffffff167c0100000000000000000000000000000000000000000000000000000000028152600401808473ffffffffffffffffffffffffffffffffffffffff1673ffffffffffffffffffffffffffffffffffffffff16815260200183815260200180602001828103825283818151815260200191508051906020019080838360005b838110156119d75780820151818401526020810190506119bc565b50505050905090810190601f168015611a045780820380516001836020036101000a031916815260200191505b50945050505050600060405180830381600087803b1515611a2457600080fd5b6102c65a03f11515611a3557600080fd5b505050600060159054906101000a900460ff1615611b20578473ffffffffffffffffffffffffffffffffffffffff163373ffffffffffffffffffffffffffffffffffffffff167fe19260aff97b920c7df27010903aeb9c8d2be5d310a2c67824cf3f15396e4c1686866040518083815260200180602001828103825283818151815260200191508051906020019080838360005b83811015611ae4578082015181840152602081019050611ac9565b50505050905090810190601f168015611b115780820380516001836020036101000a031916815260200191505b50935050505060405180910390a35b600060169054906101000a900460ff1615611b9b578473ffffffffffffffffffffffffffffffffffffffff163373ffffffffffffffffffffffffffffffffffffffff167fddf252ad1be2c89b69c2b068fc378daa952ba7f163c4a11628f55a4df523b3ef866040518082815260200191505060405180910390a35b600060149054906101000a900460ff1615611c83578473ffffffffffffffffffffffffffffffffffffffff163373ffffffffffffffffffffffffffffffffffffffff167f9bfafdc2ae8835972d7b64ef3f8f307165ac22ceffde4a742c52da5487f45fd186866040518083815260200180602001828103825283818151815260200191508051906020019080838360005b83811015611c47578082015181840152602081019050611c2c565b50505050905090810190601f168015611c745780820380516001836020036101000a031916815260200191505b50935050505060405180910390a35b60019150509392505050565b600081831015611c9e57600080fd5b818303905092915050565b6000817fffffffffffffffffffffffffffffffffffffffffffffffffffffffffffffffff03831115611cda57600080fd5b818301905092915050565b6020604051908101604052806000815250905600a165627a7a72305820ec86e61df821a1a48bdb28131ad51423942a3fd73cac5e54bdb9f0cb975d4b710029",
  "source": "pragma solidity ^0.4.9;\r\n\r\n /*\r\n * Contract that is working with ERC223 tokens\r\n */\r\n \r\ncontract ContractReceiver {\r\n    function tokenFallback(address _from, uint _value, bytes _data);\r\n} \r\n\r\n /**\r\n * ERC23 token by Dexaran\r\n *\r\n * https://github.com/Dexaran/ERC23-tokens\r\n */\r\n \r\n \r\n /* https://github.com/LykkeCity/EthereumApiDotNetCore/blob/master/src/ContractBuilder/contracts/token/SafeMath.sol */\r\ncontract SafeMath {\r\n    uint256 constant public MAX_UINT256 =\r\n    0xFFFFFFFFFFFFFFFFFFFFFFFFFFFFFFFFFFFFFFFFFFFFFFFFFFFFFFFFFFFFFFFF;\r\n\r\n    function safeAdd(uint256 x, uint256 y) constant internal returns (uint256 z) {\r\n        if (x > MAX_UINT256 - y) throw;\r\n        return x + y;\r\n    }\r\n\r\n    function safeSub(uint256 x, uint256 y) constant internal returns (uint256 z) {\r\n        if (x < y) throw;\r\n        return x - y;\r\n    }\r\n\r\n    function safeMul(uint256 x, uint256 y) constant internal returns (uint256 z) {\r\n        if (y == 0) return 0;\r\n        if (x > MAX_UINT256 / y) throw;\r\n        return x * y;\r\n    }\r\n}\r\n \r\ncontract CoinvestToken is SafeMath {\r\n    \r\n    address public maintainer = msg.sender;\r\n    \r\n    bool public ERC223Transfer_enabled = false;\r\n    bool public Transfer_data_enabled = false;\r\n    bool public Transfer_nodata_enabled = true;\r\n    \r\n    event Transfer(address indexed from, address indexed to, uint value, bytes data);\r\n    event ERC223Transfer(address indexed from, address indexed to, uint value, bytes data);\r\n    event Transfer(address indexed from, address indexed to, uint value);\r\n    event Approval(address indexed _from, address indexed _spender, uint indexed _amount);\r\n\r\n    mapping(address => uint) balances;\r\n\r\n    // Owner of account approves the transfer of an amount to another account\r\n    mapping(address => mapping (address => uint256)) allowed;\r\n  \r\n\r\n    string public constant symbol = \"COIN\";\r\n    string public constant name = \"Coinvest\";\r\n    \r\n    uint256 public constant decimals = 18;\r\n    uint256 _totalSupply = 133928571 * (10 ** 18);\r\n    \r\n    /**\r\n     * @dev Set owner and beginning balance.\r\n    **/\r\n    function CoinvestToken()\r\n      public\r\n    {\r\n        balances[msg.sender] = _totalSupply;\r\n    }\r\n  \r\n  \r\n    // Function that is called when a user or another contract wants to transfer funds .\r\n    function transfer(address _to, uint _value, bytes _data, string _custom_fallback) returns (bool success) {\r\n      \r\n        if(isContract(_to)) {\r\n            if (balanceOf(msg.sender) < _value) throw;\r\n            balances[msg.sender] = safeSub(balanceOf(msg.sender), _value);\r\n            balances[_to] = safeAdd(balanceOf(_to), _value);\r\n            assert(_to.call.value(0)(bytes4(sha3(_custom_fallback)), msg.sender, _value, _data));\r\n            if(Transfer_data_enabled)\r\n            {\r\n                Transfer(msg.sender, _to, _value, _data);\r\n            }\r\n            if(Transfer_nodata_enabled)\r\n            {\r\n                Transfer(msg.sender, _to, _value);\r\n            }\r\n            if(ERC223Transfer_enabled)\r\n            {\r\n                ERC223Transfer(msg.sender, _to, _value, _data);\r\n            }\r\n            return true;\r\n        }\r\n        else {\r\n            return transferToAddress(_to, _value, _data);\r\n        }\r\n    }\r\n\r\n    function ERC20transfer(address _to, uint _value, bytes _data) returns (bool success) {\r\n        bytes memory empty;\r\n        return transferToAddress(_to, _value, empty);\r\n    }\r\n  \r\n\r\n    // Function that is called when a user or another contract wants to transfer funds .\r\n    function transfer(address _to, uint _value, bytes _data) returns (bool success) {\r\n        if(isContract(_to)) {\r\n            return transferToContract(_to, _value, _data);\r\n        }\r\n        else {\r\n            return transferToAddress(_to, _value, _data);\r\n        }\r\n    }\r\n  \r\n    // Standard function transfer similar to ERC20 transfer with no _data .\r\n    // Added due to backwards compatibility reasons .\r\n    function transfer(address _to, uint _value) returns (bool success) {\r\n      \r\n        //standard function transfer similar to ERC20 transfer with no _data\r\n        //added due to backwards compatibility reasons\r\n        bytes memory empty;\r\n        if(isContract(_to)) {\r\n            return transferToContract(_to, _value, empty);\r\n        }\r\n        else {\r\n            return transferToAddress(_to, _value, empty);\r\n        }\r\n    }\r\n\r\n    //assemble the given address bytecode. If bytecode exists then the _addr is a contract.\r\n    function isContract(address _addr) public returns (bool is_contract) {\r\n        uint length;\r\n        assembly {\r\n            //retrieve the size of the code on target address, this needs assembly\r\n            length := extcodesize(_addr)\r\n        }\r\n        return (length>0);\r\n    }\r\n\r\n    //function that is called when transaction target is an address\r\n    function transferToAddress(address _to, uint _value, bytes _data) private returns (bool success) {\r\n        if (balanceOf(msg.sender) < _value) throw;\r\n        balances[msg.sender] = safeSub(balanceOf(msg.sender), _value);\r\n        balances[_to] = safeAdd(balanceOf(_to), _value);\r\n        if(Transfer_data_enabled)\r\n        {\r\n            Transfer(msg.sender, _to, _value, _data);\r\n        }\r\n        if(Transfer_nodata_enabled)\r\n        {\r\n            Transfer(msg.sender, _to, _value);\r\n        }\r\n        if(ERC223Transfer_enabled)\r\n        {\r\n            ERC223Transfer(msg.sender, _to, _value, _data);\r\n        }\r\n        return true;\r\n    }\r\n  \r\n    //function that is called when transaction target is a contract\r\n    function transferToContract(address _to, uint _value, bytes _data) private returns (bool success) {\r\n        if (balanceOf(msg.sender) < _value) throw;\r\n        balances[msg.sender] = safeSub(balanceOf(msg.sender), _value);\r\n        balances[_to] = safeAdd(balanceOf(_to), _value);\r\n        ContractReceiver receiver = ContractReceiver(_to);\r\n        receiver.tokenFallback(msg.sender, _value, _data);\r\n        if(Transfer_data_enabled)\r\n        {\r\n            Transfer(msg.sender, _to, _value, _data);\r\n        }\r\n        if(Transfer_nodata_enabled)\r\n        {\r\n            Transfer(msg.sender, _to, _value);\r\n        }\r\n        if(ERC223Transfer_enabled)\r\n        {\r\n            ERC223Transfer(msg.sender, _to, _value, _data);\r\n        }\r\n        return true;\r\n    }\r\n\r\n\r\n    function balanceOf(address _owner) constant returns (uint balance) {\r\n        return balances[_owner];\r\n    }\r\n\r\n    /**\r\n     * @dev An allowed address can transfer tokens from another's address.\r\n     * @param _from The owner of the tokens to be transferred.\r\n     * @param _to The address to which the tokens will be transferred.\r\n     * @param _amount The amount of tokens to be transferred.\r\n    **/\r\n    function transferFrom(address _from, address _to, uint _amount)\r\n      external\r\n    returns (bool success)\r\n    {\r\n        require(balances[_from] >= _amount && allowed[_from][msg.sender] >= _amount);\r\n\r\n        allowed[_from][msg.sender] -= _amount;\r\n        balances[_from] -= _amount;\r\n        balances[_to] += _amount;\r\n        bytes memory empty;\r\n        \r\n        Transfer(_from, _to, _amount, empty);\r\n        return true;\r\n    }\r\n\r\n    /**\r\n     * @dev Approves a wallet to transfer tokens on one's behalf.\r\n     * @param _spender The wallet approved to spend tokens.\r\n     * @param _amount The amount of tokens approved to spend.\r\n    **/\r\n    function approve(address _spender, uint256 _amount) \r\n      external\r\n    {\r\n        require(_amount == 0 || allowed[msg.sender][_spender] == 0);\r\n        require(balances[msg.sender] >= _amount);\r\n        \r\n        allowed[msg.sender][_spender] = _amount;\r\n        Approval(msg.sender, _spender, _amount);\r\n    }\r\n\r\n    /**\r\n     * @dev Allowed amount for a user to spend of another's tokens.\r\n     * @param _owner The owner of the tokens approved to spend.\r\n     * @param _spender The address of the user allowed to spend the tokens.\r\n    **/\r\n    function allowance(address _owner, address _spender) \r\n      external\r\n      constant \r\n    returns (uint256) \r\n    {\r\n        return allowed[_owner][_spender];\r\n    }\r\n    \r\n    function adjust_ERC223Transfer(bool _value) only_maintainer\r\n    {\r\n        ERC223Transfer_enabled = _value;\r\n    }\r\n    \r\n    function adjust_Transfer_nodata(bool _value) only_maintainer\r\n    {\r\n        Transfer_nodata_enabled = _value;\r\n    }\r\n    \r\n    function adjust_Transfer_data(bool _value) only_maintainer\r\n    {\r\n        Transfer_data_enabled = _value;\r\n    }\r\n    \r\n    modifier only_maintainer\r\n    {\r\n        assert(msg.sender == maintainer);\r\n        _;\r\n    }\r\n}\r\n",
  "sourcePath": "G:\\solidity\\RojaxPrivate\\CoinvestAudit\\contracts\\CoinvestToken.sol",
  "compiler": {
    "name": "solc",
    "version": "0.4.18+commit.9cf6e910.Emscripten.clang"
  },
  "schemaVersion": "1.0.1",
  "updatedAt": "2018-01-29T16:56:03.877Z"
}