{
  "contractName": "ICO",
  "abi": [
    {
      "constant": true,
      "inputs": [],
      "name": "max_contribution",
      "outputs": [
        {
          "name": "",
          "type": "uint256"
        }
      ],
      "payable": false,
      "stateMutability": "view",
      "type": "function"
    },
    {
      "constant": false,
      "inputs": [
        {
          "name": "_beneficiary",
          "type": "address"
        }
      ],
      "name": "purchase",
      "outputs": [],
      "payable": true,
      "stateMutability": "payable",
      "type": "function"
    },
    {
      "constant": true,
      "inputs": [],
      "name": "end_block",
      "outputs": [
        {
          "name": "",
          "type": "uint256"
        }
      ],
      "payable": false,
      "stateMutability": "view",
      "type": "function"
    },
    {
      "constant": false,
      "inputs": [],
      "name": "withdraw_ether",
      "outputs": [],
      "payable": false,
      "stateMutability": "nonpayable",
      "type": "function"
    },
    {
      "constant": true,
      "inputs": [],
      "name": "owner",
      "outputs": [
        {
          "name": "",
          "type": "address"
        }
      ],
      "payable": false,
      "stateMutability": "view",
      "type": "function"
    },
    {
      "constant": true,
      "inputs": [],
      "name": "tokenAddress",
      "outputs": [
        {
          "name": "",
          "type": "address"
        }
      ],
      "payable": false,
      "stateMutability": "view",
      "type": "function"
    },
    {
      "constant": true,
      "inputs": [],
      "name": "price",
      "outputs": [
        {
          "name": "",
          "type": "uint256"
        }
      ],
      "payable": false,
      "stateMutability": "view",
      "type": "function"
    },
    {
      "constant": false,
      "inputs": [
        {
          "name": "_start_block",
          "type": "uint256"
        },
        {
          "name": "_end_block",
          "type": "uint256"
        }
      ],
      "name": "set_timeframes",
      "outputs": [],
      "payable": false,
      "stateMutability": "nonpayable",
      "type": "function"
    },
    {
      "constant": true,
      "inputs": [],
      "name": "min_contribution",
      "outputs": [
        {
          "name": "",
          "type": "uint256"
        }
      ],
      "payable": false,
      "stateMutability": "view",
      "type": "function"
    },
    {
      "constant": true,
      "inputs": [],
      "name": "start_block",
      "outputs": [
        {
          "name": "",
          "type": "uint256"
        }
      ],
      "payable": false,
      "stateMutability": "view",
      "type": "function"
    },
    {
      "constant": true,
      "inputs": [
        {
          "name": "",
          "type": "address"
        },
        {
          "name": "",
          "type": "uint256"
        },
        {
          "name": "",
          "type": "bytes"
        }
      ],
      "name": "tokenFallback",
      "outputs": [],
      "payable": false,
      "stateMutability": "view",
      "type": "function"
    },
    {
      "constant": false,
      "inputs": [],
      "name": "withdraw_token",
      "outputs": [],
      "payable": false,
      "stateMutability": "nonpayable",
      "type": "function"
    },
    {
      "constant": false,
      "inputs": [
        {
          "name": "newOwner",
          "type": "address"
        }
      ],
      "name": "transferOwnership",
      "outputs": [],
      "payable": false,
      "stateMutability": "nonpayable",
      "type": "function"
    },
    {
      "inputs": [
        {
          "name": "_tokenAddress",
          "type": "address"
        },
        {
          "name": "_start_block",
          "type": "uint256"
        },
        {
          "name": "_end_block",
          "type": "uint256"
        },
        {
          "name": "_price",
          "type": "uint256"
        }
      ],
      "payable": false,
      "stateMutability": "nonpayable",
      "type": "constructor"
    },
    {
      "payable": true,
      "stateMutability": "payable",
      "type": "fallback"
    },
    {
      "anonymous": false,
      "inputs": [
        {
          "indexed": true,
          "name": "_owner",
          "type": "address"
        },
        {
          "indexed": true,
          "name": "_amount",
          "type": "uint256"
        }
      ],
      "name": "Buy",
      "type": "event"
    },
    {
      "anonymous": false,
      "inputs": [
        {
          "indexed": true,
          "name": "previousOwner",
          "type": "address"
        },
        {
          "indexed": true,
          "name": "newOwner",
          "type": "address"
        }
      ],
      "name": "OwnershipTransferred",
      "type": "event"
    }
  ],
  "bytecode": "0x60606040526802b5e3af16b188000060025566038d7ea4c68000600355341561002757600080fd5b604051608080610ea583398101604052808051906020019091908051906020019091908051906020019091908051906020019091905050336000806101000a81548173ffffffffffffffffffffffffffffffffffffffff021916908373ffffffffffffffffffffffffffffffffffffffff16021790555083600160006101000a81548173ffffffffffffffffffffffffffffffffffffffff021916908373ffffffffffffffffffffffffffffffffffffffff16021790555082600481905550816005819055508060068190555050505050610d9e806101076000396000f3006060604052600436106100c5576000357c0100000000000000000000000000000000000000000000000000000000900463ffffffff16806314580027146100d057806325b31a97146100f95780635e0b12591461012757806379061e96146101505780638da5cb5b146101655780639d76ea58146101ba578063a035b1fe1461020f578063a1b162a814610238578063a2ce0f8714610264578063b87fb3db1461028d578063c0ee0b8a146102b6578063ea98321e1461030c578063f2fde38b14610321575b6100ce3361035a565b005b34156100db57600080fd5b6100e36107c9565b6040518082815260200191505060405180910390f35b610125600480803573ffffffffffffffffffffffffffffffffffffffff1690602001909190505061035a565b005b341561013257600080fd5b61013a6107cf565b6040518082815260200191505060405180910390f35b341561015b57600080fd5b6101636107d5565b005b341561017057600080fd5b6101786108aa565b604051808273ffffffffffffffffffffffffffffffffffffffff1673ffffffffffffffffffffffffffffffffffffffff16815260200191505060405180910390f35b34156101c557600080fd5b6101cd6108cf565b604051808273ffffffffffffffffffffffffffffffffffffffff1673ffffffffffffffffffffffffffffffffffffffff16815260200191505060405180910390f35b341561021a57600080fd5b6102226108f9565b6040518082815260200191505060405180910390f35b341561024357600080fd5b61026260048080359060200190919080359060200190919050506108ff565b005b341561026f57600080fd5b61027761097c565b6040518082815260200191505060405180910390f35b341561029857600080fd5b6102a0610982565b6040518082815260200191505060405180910390f35b34156102c157600080fd5b61030a600480803573ffffffffffffffffffffffffffffffffffffffff169060200190919080359060200190919080359060200190820180359060200191909192905050610988565b005b341561031757600080fd5b61031f6109e7565b005b341561032c57600080fd5b610358600480803573ffffffffffffffffffffffffffffffffffffffff16906020019091905050610c1d565b005b6000600354341015801561037057506002543411155b151561037b57600080fd5b6005544310801561038e57506004544310155b151561039957600080fd5b6006543402905080600160009054906101000a900473ffffffffffffffffffffffffffffffffffffffff1673ffffffffffffffffffffffffffffffffffffffff166370a08231306000604051602001526040518263ffffffff167c0100000000000000000000000000000000000000000000000000000000028152600401808273ffffffffffffffffffffffffffffffffffffffff1673ffffffffffffffffffffffffffffffffffffffff168152602001915050602060405180830381600087803b151561046657600080fd5b6102c65a03f1151561047757600080fd5b505050604051805190501015610698578173ffffffffffffffffffffffffffffffffffffffff166108fc600654600160009054906101000a900473ffffffffffffffffffffffffffffffffffffffff1673ffffffffffffffffffffffffffffffffffffffff166370a08231306000604051602001526040518263ffffffff167c0100000000000000000000000000000000000000000000000000000000028152600401808273ffffffffffffffffffffffffffffffffffffffff1673ffffffffffffffffffffffffffffffffffffffff168152602001915050602060405180830381600087803b151561056957600080fd5b6102c65a03f1151561057a57600080fd5b5050506040518051905081151561058d57fe5b0434039081150290604051600060405180830381858888f1935050505015156105b557600080fd5b600160009054906101000a900473ffffffffffffffffffffffffffffffffffffffff1673ffffffffffffffffffffffffffffffffffffffff166370a08231306000604051602001526040518263ffffffff167c0100000000000000000000000000000000000000000000000000000000028152600401808273ffffffffffffffffffffffffffffffffffffffff1673ffffffffffffffffffffffffffffffffffffffff168152602001915050602060405180830381600087803b151561067a57600080fd5b6102c65a03f1151561068b57600080fd5b5050506040518051905090505b600160009054906101000a900473ffffffffffffffffffffffffffffffffffffffff1673ffffffffffffffffffffffffffffffffffffffff1663a9059cbb83836000604051602001526040518363ffffffff167c0100000000000000000000000000000000000000000000000000000000028152600401808373ffffffffffffffffffffffffffffffffffffffff1673ffffffffffffffffffffffffffffffffffffffff16815260200182815260200192505050602060405180830381600087803b151561076557600080fd5b6102c65a03f1151561077657600080fd5b5050506040518051905050808273ffffffffffffffffffffffffffffffffffffffff167fe3d4187f6ca4248660cc0ac8b8056515bac4a8132be2eca31d6d0cc170722a7e60405160405180910390a35050565b60025481565b60055481565b6000809054906101000a900473ffffffffffffffffffffffffffffffffffffffff1673ffffffffffffffffffffffffffffffffffffffff163373ffffffffffffffffffffffffffffffffffffffff1614151561083057600080fd5b6000809054906101000a900473ffffffffffffffffffffffffffffffffffffffff1673ffffffffffffffffffffffffffffffffffffffff166108fc3073ffffffffffffffffffffffffffffffffffffffff16319081150290604051600060405180830381858888f1935050505015156108a857600080fd5b565b6000809054906101000a900473ffffffffffffffffffffffffffffffffffffffff1681565b6000600160009054906101000a900473ffffffffffffffffffffffffffffffffffffffff16905090565b60065481565b6000809054906101000a900473ffffffffffffffffffffffffffffffffffffffff1673ffffffffffffffffffffffffffffffffffffffff163373ffffffffffffffffffffffffffffffffffffffff1614151561095a57600080fd5b6004544310151561096a57600080fd5b81600481905550806005819055505050565b60035481565b60045481565b600160009054906101000a900473ffffffffffffffffffffffffffffffffffffffff1673ffffffffffffffffffffffffffffffffffffffff163373ffffffffffffffffffffffffffffffffffffffff161415156109e157fe5b50505050565b6000809054906101000a900473ffffffffffffffffffffffffffffffffffffffff1673ffffffffffffffffffffffffffffffffffffffff163373ffffffffffffffffffffffffffffffffffffffff16141515610a4257600080fd5b6005544310151515610a5357600080fd5b600160009054906101000a900473ffffffffffffffffffffffffffffffffffffffff1673ffffffffffffffffffffffffffffffffffffffff1663a9059cbb33600160009054906101000a900473ffffffffffffffffffffffffffffffffffffffff1673ffffffffffffffffffffffffffffffffffffffff166370a08231306000604051602001526040518263ffffffff167c0100000000000000000000000000000000000000000000000000000000028152600401808273ffffffffffffffffffffffffffffffffffffffff1673ffffffffffffffffffffffffffffffffffffffff168152602001915050602060405180830381600087803b1515610b5757600080fd5b6102c65a03f11515610b6857600080fd5b505050604051805190506000604051602001526040518363ffffffff167c0100000000000000000000000000000000000000000000000000000000028152600401808373ffffffffffffffffffffffffffffffffffffffff1673ffffffffffffffffffffffffffffffffffffffff16815260200182815260200192505050602060405180830381600087803b1515610bff57600080fd5b6102c65a03f11515610c1057600080fd5b5050506040518051905050565b6000809054906101000a900473ffffffffffffffffffffffffffffffffffffffff1673ffffffffffffffffffffffffffffffffffffffff163373ffffffffffffffffffffffffffffffffffffffff16141515610c7857600080fd5b600073ffffffffffffffffffffffffffffffffffffffff168173ffffffffffffffffffffffffffffffffffffffff1614151515610cb457600080fd5b8073ffffffffffffffffffffffffffffffffffffffff166000809054906101000a900473ffffffffffffffffffffffffffffffffffffffff1673ffffffffffffffffffffffffffffffffffffffff167f8be0079c531659141344cd1fd0a4f28419497f9722a3daafe3b4186f6b6457e060405160405180910390a3806000806101000a81548173ffffffffffffffffffffffffffffffffffffffff021916908373ffffffffffffffffffffffffffffffffffffffff160217905550505600a165627a7a7230582053fa0d5864bbe5046fa3a507cb23c469cd383c3ebea578be6f724e4c4284330a0029",
  "source": "pragma solidity ^0.4.15;\r\nimport './Ownable.sol';\r\nimport './CoinvestToken.sol'; \r\n\r\ncontract ICO is Ownable {\r\n    CoinvestToken token;\r\n    \r\n    uint256 public max_contribution = 50 ether; // Whale protection: 50 ETH max deposit\r\n    uint256 public min_contribution = 1 ether / 1000; // Minnow protection: 0.001 ETH min deposit\r\n    \r\n    uint256 public start_block; // Starting block of the crowdsale, accepts funds ON this block\r\n    uint256 public end_block; // Ending block of the crowdsale, no funds accepted on or after this block.\r\n    uint256 public price; // Amount of tokens to be sent per each WEI(ETH) contributed.\r\n    /**\r\n     * @notice The `price` should be calculated as follows:\r\n     * Targeted parameters 1100 COIN for $700 USD\r\n     * \r\n     * Assume ETH price = $1310 USD\r\n     * 1310 / 700 * 1100 = 2058 \r\n    **/\r\n    \r\n    /**\r\n     * @dev Emitted when a user purchases COIN.\r\n     * @param _owner The user who has purchase and now owns the COIN.\r\n     * @param _amount The amount of COIN the _owner has purchased.\r\n    **/\r\n    event Buy(address indexed _owner, uint256 indexed _amount);\r\n\r\n    /**\r\n     * @dev Initialize contract.\r\n     * @param _tokenAddress The address of the COIN token.\r\n     * @param _start_block The block that we want the ICO to start (inclusive).\r\n     * @param _end_block The block that we want the ICO to end (exclusive).\r\n    **/\r\n    function ICO(address _tokenAddress, uint256 _start_block, uint256 _end_block, uint256 _price)\r\n      public\r\n    {\r\n        token = CoinvestToken(_tokenAddress);\r\n        start_block = _start_block;\r\n        end_block = _end_block;\r\n        price = _price;\r\n    }\r\n\r\n    /**\r\n     * @dev ERC223 compatibility.\r\n    **/\r\n    function tokenFallback(address, uint, bytes)\r\n      external\r\n      view\r\n    {\r\n        assert(msg.sender == address(token));\r\n    }\r\n\r\n    /**\r\n     * @dev Fallback used for most purchases.\r\n    **/\r\n    function()\r\n      external\r\n      payable\r\n    {\r\n        purchase(msg.sender);\r\n    }\r\n\r\n    /**\r\n     * @dev Main purchase function. Split from fallback to allow purchasing to another wallet.\r\n     * @param _beneficiary The address that will receive COIN tokens.\r\n    **/\r\n\r\n    // SHOULD REVERT IF THERE ARE NO MORE TOKENS!\r\n    // UNNECC GAS USAGE FOR TRANSFERING BACK + EVENTS WILL STILL GET TRIGGERED\r\n    function purchase(address _beneficiary)\r\n      public\r\n      payable\r\n    {\r\n        require(msg.value >= min_contribution && msg.value <= max_contribution);\r\n        require((block.number < end_block) && (block.number >= start_block));\r\n        \r\n        uint256 _tokens_bought = msg.value * price;\r\n        if(token.balanceOf(address(this)) < _tokens_bought)\r\n        {\r\n            _beneficiary.transfer(msg.value - (token.balanceOf(address(this)) / price ) );\r\n            _tokens_bought = token.balanceOf(address(this));\r\n        }\r\n        token.transfer(_beneficiary, _tokens_bought);\r\n        Buy(_beneficiary, _tokens_bought);\r\n    }\r\n    \r\n    /**\r\n     * @dev Set the timeframes of the crowdsale.\r\n     * @param _start_block The block on which the crowdsale will start (inclusive).\r\n     * @param _end_block The block at which the crowdsale will end (exclusive).\r\n    **/\r\n    function set_timeframes(uint256 _start_block, uint256 _end_block) \r\n      external\r\n      onlyOwner\r\n    {\r\n        // Timeframes may only be changed before the crowdsale begins.\r\n        require(block.number < start_block);\r\n        \r\n        start_block = _start_block;\r\n        end_block = _end_block;\r\n    }\r\n    \r\n    /**\r\n     * @dev Owner may withdraw the Ether that has been used to purchase COIN.\r\n    **/\r\n    function withdraw_ether() \r\n      external\r\n      onlyOwner\r\n    {\r\n        owner.transfer(this.balance);\r\n    }\r\n    \r\n    /**\r\n     * @dev Owner may withdraw any remaining tokens from the crowdsale.\r\n    **/\r\n    function withdraw_token() \r\n      external\r\n      onlyOwner\r\n    {\r\n        // Tokens may only be withdrawn after crowdsale ends.\r\n        require(block.number >= end_block);\r\n        \r\n        token.transfer(msg.sender, token.balanceOf(this));\r\n    }\r\n    \r\n    function tokenAddress() \r\n    external view\r\n    returns (address)\r\n    {\r\n        return address(token);\r\n    }\r\n\r\n}\r\n",
  "sourcePath": "G:\\solidity\\RojaxPrivate\\CoinvestAudit\\contracts\\ICO.sol",
  "compiler": {
    "name": "solc",
    "version": "0.4.18+commit.9cf6e910.Emscripten.clang"
  },
  "schemaVersion": "1.0.1",
  "updatedAt": "2018-01-29T16:56:03.881Z"
}